{
  "_format": "hh-sol-artifact-1",
  "contractName": "CraftAgent",
  "sourceName": "contracts/CraftAgent.sol",
  "abi": [
    {
      "inputs": [],
      "stateMutability": "nonpayable",
      "type": "constructor"
    },
    {
      "inputs": [
        {
          "internalType": "address",
          "name": "owner",
          "type": "address"
        }
      ],
      "name": "OwnableInvalidOwner",
      "type": "error"
    },
    {
      "inputs": [
        {
          "internalType": "address",
          "name": "account",
          "type": "address"
        }
      ],
      "name": "OwnableUnauthorizedAccount",
      "type": "error"
    },
    {
      "anonymous": false,
      "inputs": [
        {
          "indexed": true,
          "internalType": "uint256",
          "name": "contentId",
          "type": "uint256"
        },
        {
          "indexed": true,
          "internalType": "address",
          "name": "creator",
          "type": "address"
        },
        {
          "indexed": false,
          "internalType": "string",
          "name": "videoCID",
          "type": "string"
        }
      ],
      "name": "ContentUploaded",
      "type": "event"
    },
    {
      "anonymous": false,
      "inputs": [
        {
          "indexed": true,
          "internalType": "address",
          "name": "creator",
          "type": "address"
        },
        {
          "indexed": false,
          "internalType": "uint256",
          "name": "amount",
          "type": "uint256"
        }
      ],
      "name": "CreatorPaid",
      "type": "event"
    },
    {
      "anonymous": false,
      "inputs": [
        {
          "indexed": true,
          "internalType": "address",
          "name": "subscriber",
          "type": "address"
        },
        {
          "indexed": false,
          "internalType": "uint256",
          "name": "endTime",
          "type": "uint256"
        }
      ],
      "name": "NewSubscription",
      "type": "event"
    },
    {
      "anonymous": false,
      "inputs": [
        {
          "indexed": true,
          "internalType": "address",
          "name": "previousOwner",
          "type": "address"
        },
        {
          "indexed": true,
          "internalType": "address",
          "name": "newOwner",
          "type": "address"
        }
      ],
      "name": "OwnershipTransferred",
      "type": "event"
    },
    {
      "inputs": [],
      "name": "MONTHLY_FEE",
      "outputs": [
        {
          "internalType": "uint256",
          "name": "",
          "type": "uint256"
        }
      ],
      "stateMutability": "view",
      "type": "function"
    },
    {
      "inputs": [],
      "name": "contentCount",
      "outputs": [
        {
          "internalType": "uint256",
          "name": "",
          "type": "uint256"
        }
      ],
      "stateMutability": "view",
      "type": "function"
    },
    {
      "inputs": [
        {
          "internalType": "uint256",
          "name": "",
          "type": "uint256"
        }
      ],
      "name": "contents",
      "outputs": [
        {
          "internalType": "string",
          "name": "videoCID",
          "type": "string"
        },
        {
          "internalType": "string",
          "name": "modelCID",
          "type": "string"
        },
        {
          "internalType": "string",
          "name": "title",
          "type": "string"
        },
        {
          "internalType": "address",
          "name": "creator",
          "type": "address"
        },
        {
          "internalType": "uint256",
          "name": "views",
          "type": "uint256"
        },
        {
          "internalType": "uint256",
          "name": "timestamp",
          "type": "uint256"
        }
      ],
      "stateMutability": "view",
      "type": "function"
    },
    {
      "inputs": [
        {
          "internalType": "address",
          "name": "",
          "type": "address"
        }
      ],
      "name": "creators",
      "outputs": [
        {
          "internalType": "address payable",
          "name": "walletAddress",
          "type": "address"
        },
        {
          "internalType": "uint256",
          "name": "totalViews",
          "type": "uint256"
        },
        {
          "internalType": "uint256",
          "name": "totalEarnings",
          "type": "uint256"
        },
        {
          "internalType": "bool",
          "name": "isActive",
          "type": "bool"
        }
      ],
      "stateMutability": "view",
      "type": "function"
    },
    {
      "inputs": [],
      "name": "distributeEarnings",
      "outputs": [],
      "stateMutability": "nonpayable",
      "type": "function"
    },
    {
      "inputs": [
        {
          "internalType": "address",
          "name": "user",
          "type": "address"
        }
      ],
      "name": "hasActiveSubscription",
      "outputs": [
        {
          "internalType": "bool",
          "name": "",
          "type": "bool"
        }
      ],
      "stateMutability": "view",
      "type": "function"
    },
    {
      "inputs": [],
      "name": "owner",
      "outputs": [
        {
          "internalType": "address",
          "name": "",
          "type": "address"
        }
      ],
      "stateMutability": "view",
      "type": "function"
    },
    {
      "inputs": [
        {
          "internalType": "uint256",
          "name": "contentId",
          "type": "uint256"
        }
      ],
      "name": "recordView",
      "outputs": [],
      "stateMutability": "nonpayable",
      "type": "function"
    },
    {
      "inputs": [],
      "name": "renounceOwnership",
      "outputs": [],
      "stateMutability": "nonpayable",
      "type": "function"
    },
    {
      "inputs": [],
      "name": "subscribe",
      "outputs": [],
      "stateMutability": "payable",
      "type": "function"
    },
    {
      "inputs": [
        {
          "internalType": "address",
          "name": "",
          "type": "address"
        }
      ],
      "name": "subscriptionEndTime",
      "outputs": [
        {
          "internalType": "uint256",
          "name": "",
          "type": "uint256"
        }
      ],
      "stateMutability": "view",
      "type": "function"
    },
    {
      "inputs": [
        {
          "internalType": "address",
          "name": "newOwner",
          "type": "address"
        }
      ],
      "name": "transferOwnership",
      "outputs": [],
      "stateMutability": "nonpayable",
      "type": "function"
    },
    {
      "inputs": [
        {
          "internalType": "string",
          "name": "_videoCID",
          "type": "string"
        },
        {
          "internalType": "string",
          "name": "_modelCID",
          "type": "string"
        },
        {
          "internalType": "string",
          "name": "_title",
          "type": "string"
        },
        {
          "internalType": "string[]",
          "name": "_tags",
          "type": "string[]"
        }
      ],
      "name": "uploadContent",
      "outputs": [],
      "stateMutability": "nonpayable",
      "type": "function"
    }
  ],
  "bytecode": "0x60806040523480156200001157600080fd5b5033600073ffffffffffffffffffffffffffffffffffffffff168173ffffffffffffffffffffffffffffffffffffffff1603620000885760006040517f1e4fbdf70000000000000000000000000000000000000000000000000000000081526004016200007f9190620001a9565b60405180910390fd5b6200009981620000a060201b60201c565b50620001c6565b60008060009054906101000a900473ffffffffffffffffffffffffffffffffffffffff169050816000806101000a81548173ffffffffffffffffffffffffffffffffffffffff021916908373ffffffffffffffffffffffffffffffffffffffff1602179055508173ffffffffffffffffffffffffffffffffffffffff168173ffffffffffffffffffffffffffffffffffffffff167f8be0079c531659141344cd1fd0a4f28419497f9722a3daafe3b4186f6b6457e060405160405180910390a35050565b600073ffffffffffffffffffffffffffffffffffffffff82169050919050565b6000620001918262000164565b9050919050565b620001a38162000184565b82525050565b6000602082019050620001c0600083018462000198565b92915050565b611f3980620001d66000396000f3fe6080604052600436106100c25760003560e01c80638f449a051161007f578063bb12436511610059578063bb1243651461023b578063bebe4a5714610266578063cc459696146102a3578063f2fde38b146102ce576100c2565b80638f449a05146101af578063933166e1146101b9578063b5ecf912146101f9576100c2565b80631f7ba134146100c757806323b9101d146100f05780635825b2f11461012d578063715018a61461015657806376577eae1461016d5780638da5cb5b14610184575b600080fd5b3480156100d357600080fd5b506100ee60048036038101906100e99190611222565b6102f7565b005b3480156100fc57600080fd5b50610117600480360381019061011291906112ad565b610434565b60405161012491906112e9565b60405180910390f35b34801561013957600080fd5b50610154600480360381019061014f9190611530565b61044c565b005b34801561016257600080fd5b5061016b6107ad565b005b34801561017957600080fd5b506101826107c1565b005b34801561019057600080fd5b50610199610ac1565b6040516101a69190611616565b60405180910390f35b6101b7610aea565b005b3480156101c557600080fd5b506101e060048036038101906101db91906112ad565b610c78565b6040516101f0949392919061166d565b60405180910390f35b34801561020557600080fd5b50610220600480360381019061021b9190611222565b610cd5565b60405161023296959493929190611731565b60405180910390f35b34801561024757600080fd5b50610250610ec9565b60405161025d91906112e9565b60405180910390f35b34801561027257600080fd5b5061028d600480360381019061028891906112ad565b610ed4565b60405161029a91906117a7565b60405180910390f35b3480156102af57600080fd5b506102b8610f1f565b6040516102c591906112e9565b60405180910390f35b3480156102da57600080fd5b506102f560048036038101906102f091906112ad565b610f25565b005b600254811061033b576040517f08c379a00000000000000000000000000000000000000000000000000000000081526004016103329061180e565b60405180910390fd5b61034433610ed4565b610383576040517f08c379a000000000000000000000000000000000000000000000000000000000815260040161037a9061187a565b60405180910390fd5b60006001600083815260200190815260200160002090508060050160008154809291906103af906118c9565b9190505550600460008260040160009054906101000a900473ffffffffffffffffffffffffffffffffffffffff1673ffffffffffffffffffffffffffffffffffffffff1673ffffffffffffffffffffffffffffffffffffffff168152602001908152602001600020600101600081548092919061042b906118c9565b91905055505050565b60036020528060005260406000206000915090505481565b6000845111610490576040517f08c379a00000000000000000000000000000000000000000000000000000000081526004016104879061195d565b60405180910390fd5b60008351116104d4576040517f08c379a00000000000000000000000000000000000000000000000000000000081526004016104cb906119c9565b60405180910390fd5b600460003373ffffffffffffffffffffffffffffffffffffffff1673ffffffffffffffffffffffffffffffffffffffff16815260200190815260200160002060030160009054906101000a900460ff166106225760405180608001604052803373ffffffffffffffffffffffffffffffffffffffff168152602001600081526020016000815260200160011515815250600460003373ffffffffffffffffffffffffffffffffffffffff1673ffffffffffffffffffffffffffffffffffffffff16815260200190815260200160002060008201518160000160006101000a81548173ffffffffffffffffffffffffffffffffffffffff021916908373ffffffffffffffffffffffffffffffffffffffff160217905550602082015181600101556040820151816002015560608201518160030160006101000a81548160ff0219169083151502179055509050505b6040518060e001604052808581526020018481526020018381526020018281526020013373ffffffffffffffffffffffffffffffffffffffff168152602001600081526020014281525060016000600254815260200190815260200160002060008201518160000190816106969190611bf5565b5060208201518160010190816106ac9190611bf5565b5060408201518160020190816106c29190611bf5565b5060608201518160030190805190602001906106df9291906110fe565b5060808201518160040160006101000a81548173ffffffffffffffffffffffffffffffffffffffff021916908373ffffffffffffffffffffffffffffffffffffffff16021790555060a0820151816005015560c082015181600601559050503373ffffffffffffffffffffffffffffffffffffffff166002547f9b254a01196130d4769a7e8e9a24ddff300fd957e55e026cbc14978eef3b62b8866040516107879190611cc7565b60405180910390a3600260008154809291906107a2906118c9565b919050555050505050565b6107b5610fab565b6107bf6000611032565b565b6107c9610fab565b600047905060008111610811576040517f08c379a000000000000000000000000000000000000000000000000000000000815260040161080890611d35565b60405180910390fd5b6000805b600254811015610856576001600082815260200190815260200160002060050154826108419190611d55565b9150808061084e906118c9565b915050610815565b506000811161089a576040517f08c379a000000000000000000000000000000000000000000000000000000000815260040161089190611dd5565b60405180910390fd5b60005b600254811015610abc576000600160008381526020019081526020016000209050600081600501541115610aa8576000838260050154866108de9190611df5565b6108e89190611e66565b905080600460008460040160009054906101000a900473ffffffffffffffffffffffffffffffffffffffff1673ffffffffffffffffffffffffffffffffffffffff1673ffffffffffffffffffffffffffffffffffffffff16815260200190815260200160002060020160008282546109609190611d55565b92505081905550600460008360040160009054906101000a900473ffffffffffffffffffffffffffffffffffffffff1673ffffffffffffffffffffffffffffffffffffffff1673ffffffffffffffffffffffffffffffffffffffff16815260200190815260200160002060000160009054906101000a900473ffffffffffffffffffffffffffffffffffffffff1673ffffffffffffffffffffffffffffffffffffffff166108fc829081150290604051600060405180830381858888f19350505050158015610a33573d6000803e3d6000fd5b508160040160009054906101000a900473ffffffffffffffffffffffffffffffffffffffff1673ffffffffffffffffffffffffffffffffffffffff167f14f433c13badc2239830ab3bb19e75dec63d39f851363844cc4e4650d0c9b60182604051610a9e91906112e9565b60405180910390a2505b508080610ab4906118c9565b91505061089d565b505050565b60008060009054906101000a900473ffffffffffffffffffffffffffffffffffffffff16905090565b662386f26fc100003414610b33576040517f08c379a0000000000000000000000000000000000000000000000000000000008152600401610b2a90611ee3565b60405180910390fd5b600042600360003373ffffffffffffffffffffffffffffffffffffffff1673ffffffffffffffffffffffffffffffffffffffff168152602001908152602001600020541115610bd15762278d00600360003373ffffffffffffffffffffffffffffffffffffffff1673ffffffffffffffffffffffffffffffffffffffff16815260200190815260200160002054610bca9190611d55565b9050610be3565b62278d0042610be09190611d55565b90505b80600360003373ffffffffffffffffffffffffffffffffffffffff1673ffffffffffffffffffffffffffffffffffffffff168152602001908152602001600020819055503373ffffffffffffffffffffffffffffffffffffffff167f1e05df24f73db39faa0c2d5d26727d08632debce09833123a69214ba943e07c282604051610c6d91906112e9565b60405180910390a250565b60046020528060005260406000206000915090508060000160009054906101000a900473ffffffffffffffffffffffffffffffffffffffff16908060010154908060020154908060030160009054906101000a900460ff16905084565b6001602052806000526040600020600091509050806000018054610cf890611a18565b80601f0160208091040260200160405190810160405280929190818152602001828054610d2490611a18565b8015610d715780601f10610d4657610100808354040283529160200191610d71565b820191906000526020600020905b815481529060010190602001808311610d5457829003601f168201915b505050505090806001018054610d8690611a18565b80601f0160208091040260200160405190810160405280929190818152602001828054610db290611a18565b8015610dff5780601f10610dd457610100808354040283529160200191610dff565b820191906000526020600020905b815481529060010190602001808311610de257829003601f168201915b505050505090806002018054610e1490611a18565b80601f0160208091040260200160405190810160405280929190818152602001828054610e4090611a18565b8015610e8d5780601f10610e6257610100808354040283529160200191610e8d565b820191906000526020600020905b815481529060010190602001808311610e7057829003601f168201915b5050505050908060040160009054906101000a900473ffffffffffffffffffffffffffffffffffffffff16908060050154908060060154905086565b662386f26fc1000081565b600042600360008473ffffffffffffffffffffffffffffffffffffffff1673ffffffffffffffffffffffffffffffffffffffff16815260200190815260200160002054119050919050565b60025481565b610f2d610fab565b600073ffffffffffffffffffffffffffffffffffffffff168173ffffffffffffffffffffffffffffffffffffffff1603610f9f5760006040517f1e4fbdf7000000000000000000000000000000000000000000000000000000008152600401610f969190611616565b60405180910390fd5b610fa881611032565b50565b610fb36110f6565b73ffffffffffffffffffffffffffffffffffffffff16610fd1610ac1565b73ffffffffffffffffffffffffffffffffffffffff161461103057610ff46110f6565b6040517f118cdaa70000000000000000000000000000000000000000000000000000000081526004016110279190611616565b60405180910390fd5b565b60008060009054906101000a900473ffffffffffffffffffffffffffffffffffffffff169050816000806101000a81548173ffffffffffffffffffffffffffffffffffffffff021916908373ffffffffffffffffffffffffffffffffffffffff1602179055508173ffffffffffffffffffffffffffffffffffffffff168173ffffffffffffffffffffffffffffffffffffffff167f8be0079c531659141344cd1fd0a4f28419497f9722a3daafe3b4186f6b6457e060405160405180910390a35050565b600033905090565b828054828255906000526020600020908101928215611146579160200282015b828111156111455782518290816111359190611bf5565b509160200191906001019061111e565b5b5090506111539190611157565b5090565b5b80821115611177576000818161116e919061117b565b50600101611158565b5090565b50805461118790611a18565b6000825580601f1061119957506111b8565b601f0160209004906000526020600020908101906111b791906111bb565b5b50565b5b808211156111d45760008160009055506001016111bc565b5090565b6000604051905090565b600080fd5b600080fd5b6000819050919050565b6111ff816111ec565b811461120a57600080fd5b50565b60008135905061121c816111f6565b92915050565b600060208284031215611238576112376111e2565b5b60006112468482850161120d565b91505092915050565b600073ffffffffffffffffffffffffffffffffffffffff82169050919050565b600061127a8261124f565b9050919050565b61128a8161126f565b811461129557600080fd5b50565b6000813590506112a781611281565b92915050565b6000602082840312156112c3576112c26111e2565b5b60006112d184828501611298565b91505092915050565b6112e3816111ec565b82525050565b60006020820190506112fe60008301846112da565b92915050565b600080fd5b600080fd5b6000601f19601f8301169050919050565b7f4e487b7100000000000000000000000000000000000000000000000000000000600052604160045260246000fd5b6113578261130e565b810181811067ffffffffffffffff821117156113765761137561131f565b5b80604052505050565b60006113896111d8565b9050611395828261134e565b919050565b600067ffffffffffffffff8211156113b5576113b461131f565b5b6113be8261130e565b9050602081019050919050565b82818337600083830152505050565b60006113ed6113e88461139a565b61137f565b90508281526020810184848401111561140957611408611309565b5b6114148482856113cb565b509392505050565b600082601f83011261143157611430611304565b5b81356114418482602086016113da565b91505092915050565b600067ffffffffffffffff8211156114655761146461131f565b5b602082029050602081019050919050565b600080fd5b600061148e6114898461144a565b61137f565b905080838252602082019050602084028301858111156114b1576114b0611476565b5b835b818110156114f857803567ffffffffffffffff8111156114d6576114d5611304565b5b8086016114e3898261141c565b855260208501945050506020810190506114b3565b5050509392505050565b600082601f83011261151757611516611304565b5b813561152784826020860161147b565b91505092915050565b6000806000806080858703121561154a576115496111e2565b5b600085013567ffffffffffffffff811115611568576115676111e7565b5b6115748782880161141c565b945050602085013567ffffffffffffffff811115611595576115946111e7565b5b6115a18782880161141c565b935050604085013567ffffffffffffffff8111156115c2576115c16111e7565b5b6115ce8782880161141c565b925050606085013567ffffffffffffffff8111156115ef576115ee6111e7565b5b6115fb87828801611502565b91505092959194509250565b6116108161126f565b82525050565b600060208201905061162b6000830184611607565b92915050565b600061163c8261124f565b9050919050565b61164c81611631565b82525050565b60008115159050919050565b61166781611652565b82525050565b60006080820190506116826000830187611643565b61168f60208301866112da565b61169c60408301856112da565b6116a9606083018461165e565b95945050505050565b600081519050919050565b600082825260208201905092915050565b60005b838110156116ec5780820151818401526020810190506116d1565b60008484015250505050565b6000611703826116b2565b61170d81856116bd565b935061171d8185602086016116ce565b6117268161130e565b840191505092915050565b600060c082019050818103600083015261174b81896116f8565b9050818103602083015261175f81886116f8565b9050818103604083015261177381876116f8565b90506117826060830186611607565b61178f60808301856112da565b61179c60a08301846112da565b979650505050505050565b60006020820190506117bc600083018461165e565b92915050565b7f436f6e74656e7420646f6573206e6f7420657869737400000000000000000000600082015250565b60006117f86016836116bd565b9150611803826117c2565b602082019050919050565b60006020820190508181036000830152611827816117eb565b9050919050565b7f4e6f2061637469766520737562736372697074696f6e00000000000000000000600082015250565b60006118646016836116bd565b915061186f8261182e565b602082019050919050565b6000602082019050818103600083015261189381611857565b9050919050565b7f4e487b7100000000000000000000000000000000000000000000000000000000600052601160045260246000fd5b60006118d4826111ec565b91507fffffffffffffffffffffffffffffffffffffffffffffffffffffffffffffffff82036119065761190561189a565b5b600182019050919050565b7f496e76616c696420766964656f20434944000000000000000000000000000000600082015250565b60006119476011836116bd565b915061195282611911565b602082019050919050565b600060208201905081810360008301526119768161193a565b9050919050565b7f496e76616c6964206d6f64656c20434944000000000000000000000000000000600082015250565b60006119b36011836116bd565b91506119be8261197d565b602082019050919050565b600060208201905081810360008301526119e2816119a6565b9050919050565b7f4e487b7100000000000000000000000000000000000000000000000000000000600052602260045260246000fd5b60006002820490506001821680611a3057607f821691505b602082108103611a4357611a426119e9565b5b50919050565b60008190508160005260206000209050919050565b60006020601f8301049050919050565b600082821b905092915050565b600060088302611aab7fffffffffffffffffffffffffffffffffffffffffffffffffffffffffffffffff82611a6e565b611ab58683611a6e565b95508019841693508086168417925050509392505050565b6000819050919050565b6000611af2611aed611ae8846111ec565b611acd565b6111ec565b9050919050565b6000819050919050565b611b0c83611ad7565b611b20611b1882611af9565b848454611a7b565b825550505050565b600090565b611b35611b28565b611b40818484611b03565b505050565b5b81811015611b6457611b59600082611b2d565b600181019050611b46565b5050565b601f821115611ba957611b7a81611a49565b611b8384611a5e565b81016020851015611b92578190505b611ba6611b9e85611a5e565b830182611b45565b50505b505050565b600082821c905092915050565b6000611bcc60001984600802611bae565b1980831691505092915050565b6000611be58383611bbb565b9150826002028217905092915050565b611bfe826116b2565b67ffffffffffffffff811115611c1757611c1661131f565b5b611c218254611a18565b611c2c828285611b68565b600060209050601f831160018114611c5f5760008415611c4d578287015190505b611c578582611bd9565b865550611cbf565b601f198416611c6d86611a49565b60005b82811015611c9557848901518255600182019150602085019450602081019050611c70565b86831015611cb25784890151611cae601f891682611bbb565b8355505b6001600288020188555050505b505050505050565b60006020820190508181036000830152611ce181846116f8565b905092915050565b7f4e6f206561726e696e677320746f206469737472696275746500000000000000600082015250565b6000611d1f6019836116bd565b9150611d2a82611ce9565b602082019050919050565b60006020820190508181036000830152611d4e81611d12565b9050919050565b6000611d60826111ec565b9150611d6b836111ec565b9250828201905080821115611d8357611d8261189a565b5b92915050565b7f4e6f207669657773207265636f72646564000000000000000000000000000000600082015250565b6000611dbf6011836116bd565b9150611dca82611d89565b602082019050919050565b60006020820190508181036000830152611dee81611db2565b9050919050565b6000611e00826111ec565b9150611e0b836111ec565b9250828202611e19816111ec565b91508282048414831517611e3057611e2f61189a565b5b5092915050565b7f4e487b7100000000000000000000000000000000000000000000000000000000600052601260045260246000fd5b6000611e71826111ec565b9150611e7c836111ec565b925082611e8c57611e8b611e37565b5b828204905092915050565b7f496e636f727265637420737562736372697074696f6e20666565000000000000600082015250565b6000611ecd601a836116bd565b9150611ed882611e97565b602082019050919050565b60006020820190508181036000830152611efc81611ec0565b905091905056fea2646970667358221220e96c648ee860470e8b7f250880ba3551a927da877b7f3754698dc8dbfa444b0264736f6c63430008140033",
  "linkReferences": {},
  "deployedLinkReferences": {}
}